S01600006761726167655F70726F6A6563742E7372656351
S11300000C9404050C9421050C9421050C942105F1
S11300100C9421050C9421050C9421050C94EA29D7
S11300200C9421050C9421050C9421050C942105B4
S11300300C943A260C9417270C9469270C944027A7
S11300400C9421050C9421050C9421050C9437245F
S11300500C94210507634236B79BD8A71A39685612
S113006018AEBAAB558C1D3CB7CC5763BD6DEDFDD6
S1130070753EF6177231BF000000803F0800000093
S1130080BE922449123EABAAAA2ABECDCCCC4C3E89
S113009000000080BEABAAAAAA3E00000000BF0078
S11300A00000803F0000000000084178D3BB438774
S11300B0D1133D190E3CC3BD4282AD2B3E68EC8288
S11300C076BED98FE1A93E4C80EFFFBE01C4FF7F0D
S11300D03F0000000000534F4D45204F4E45205730
S11300E04954482050415353574F52442000205400
S11300F0525920544F20454E5445522061742000DB
S113010020454E54455220617420005359535445A0
S11301104D204C4F434B454420504C4541534520C2
S1130120434F4E544143542054484520444556457A
S11301304C4F504552200054484520535953544580
S11301404D204953204E4F54204C4F434B4544209F
S11301502E2E2E2E2E2E00554E4C4F434B494E47DD
S1130160205448452053595354454D202E2E2E2EAD
S11301702E2E004F50454E494E47205448452047A7
S11301804152414745202E2E2E2E2E2E00474152FD
S11301904147452048415320414C52454144592050
S11301A04245454E204F50454E4544202E2E2E2E7E
S11301B02E2E00434C4F53494E4720544845204768
S11301C04152414745202E2E2E2E2E2E00474152BD
S11301D041474520495320434C4F5345442E2E2E2E
S11301E02E2E2E2E2E2E2E2E2E2E2E2E002D2D2D5C
S11301F02D2D2D2D2D2D2D2D2D2D2D2D2D2D2D2D2B
S11302002D2D2D2D2D2D2D2D2D2D2D2D2D00454E0E
S113021054455220484F555220203A2000454E5410
S11302204552204D494E55544520203A2000454E14
S1130230544552202831202D3E20414D202920288C
S113024032202D3E20504D2920203A2000454E5486
S11302504552204441544520203A2000454E5445FF
S113026052204D4F4E544820203A2000454E5445CC
S113027052205945415220203A2000444F4E4520F7
S113028054494D4520495320534554202E2E2E2E9B
S11302902E2E2E2000494E56414C494420494E50A2
S11302A05554202E2E2E2E2E2E2E2000454E5445F3
S11302B05220524F4F542050415353574F524420D1
S11302C03A20004C4F4747494E4720494E202E2E96
S11302D02E2E2E2E2E20004348414E474520524FAD
S11302E04F542050415353574F5244203A2000500A
S11302F04C454153452053455420544845205449C6
S11303004D45202E2E2E2E2E2E2E2000494E5641A7
S11303104C49442050415353574F5244202E2E2EC3
S11303202E2E2E00494E56414C49442050415353E1
S1130330574F5244202E2E2E2E2E2E0023232300E0
S1130340454E5445522041444D494E20504153534B
S1130350574F5244203A20004C4F4747494E4720BC
S1130360494E202E2E2E2E2E2E2E200057726F6ECA
S11303706720656E7472792000454E5445522031D1
S113038020544F20554E4C4F434B20544845205346
S1130390595354454D00454E544552203220544F34
S11303A0204F50454E2047415241474500454E5449
S11303B04552203320544F20434C4F53452047414E
S11303C05241474500454E544552203420544F2055
S11303D0534554205448452054494D4500454E54F6
S11303E04552203520544F204144442F52454D4F0F
S11303F0564520555345525300454E5445522036D8
S113040020544F204C4F474F5554003E3E3E00452C
S11304104E54455220524F4F54205553455220506C
S1130420415353574F5244203A20004E4F542052C8
S11304304F4F542050415353574F5244202E2E2E89
S11304402E200057524F4E4720524F4F54205041B8
S11304505353574F5244202E2E2E2E2000454E54D7
S11304604552203120544F204C49535420414C4C88
S113047020555345525300454E5445522032205482
S11304804F20414444204E45572055534552004582
S11304904E544552203320544F204544495420554E
S11304A053455200454E544552203420544F204465
S11304B0454C455445205553455200454E544552EC
S11304C0203520544F20524553455420464143542F
S11304D04F52592044454641554C5400454E5445CD
S11304E052203620544F204241434B20544F204D3C
S11304F0454E55003E3E3E005445524D494E414CFA
S1130500204C4F434B4544202E2E2E2E2000454E8A
S113051054455220524F4F542050415353574F5239
S11305204420544F20554E4C4F434B203A20005307
S1130530595354454D204C4F434B454420504C4552
S113054041534520434F4E54414354205448452081
S1130550444556454C4F50455220002D2D2D2D2DF0
S11305602D2D2D2D2D2D2D2D2D2D2D2D2D2D2D2DB7
S11305702D2D2D2D2D2D2D2D2D2D2D2D2D2D2D2DA7
S11305802D2D2D2D2D2D2D2D2D2D2D2D2D00435586
S11305905252454E54205553455253204F462054F1
S11305A048452053595354454D002D2D2D2D2D2DA7
S11305B02D2D2D2D2D2D2D2D2D2D2D2D2D2D2D2D67
S11305C02D2D2D2D00202D20002020202D3E20001B
S11305D0524F4F542055534552200041444D494EEB
S11305E0205553455220004E4F524D414C205553F7
S11305F0455220002D2D2D2D2D2D2D2D2D2D2D2D24
S11306002D2D2D2D2D2D2D2D2D2D2D2D2D2D2D2D16
S11306102D2D2D2D2D2D2D2D2D2D2D2D2D2D002D33
S11306202D2D2D2D2D2D2D2D2D2D2D2D2D2D2D2DF6
S11306302D2D2D2D2D2D2D2D2D2D2D2D2D2D2D0013
S1130640454E5445522055534552204E414D452068
S1130650284D41582039204348415229203A20004E
S1130660454E5445522055534552205041535357FB
S11306704F524420283420444947495429203A20E1
S113068000454E5445522055534552205459504527
S11306902028524F4F54203D203029207C202861AF
S11306A0646D696E203D203129207C202875736596
S11306B072203D20322920203A20005553455220F3
S11306C041444445442053554345535346554C599E
S11306D0202E2E2E2E2E2E2E2E20004641494C4505
S11306E04420544F20414444204E455720555345FF
S11306F05220594F55205245414348204D415820DE
S11307004E554D424552204F462055534552202EBA
S11307102E2E2E2E2E2E2E2E200055534552204E98
S1130720414D45204D555354204245203C2039200D
S11307304449474954202E2E2E2E2E2E2E2E2E2066
S113074000544849532055534552204E414D4520AD
S1130750414C524541445920555345442000504191
S11307605353574F5244204D55535420424520343F
S1130770204449474954202E2E2E2E2E2E2E2E2E26
S11307802000544849532050415353574F5244205A
S1130790414C524541445920555345442000575239
S11307A04F4E4720555345522054595045202E2E24
S11307B02E2E2E2E2E2E2E20002D2D2D2D2D2D2D98
S11307C02D2D2D2D2D2D2D2D2D2D2D2D2D2D2D2D55
S11307D02D2D2D2D2D2D2D2D2D00454E54455220E2
S11307E055534552204944203A200053454C454333
S11307F054204649454C4420202831202D3E204E8B
S1130800414D4529202832202D3E20504153532963
S1130810202833202D3E205459504529203A2000C9
S1130820454E5445522055534552204E414D452086
S1130830284D41582039204348415229203A20006C
S1130840454E544552205553455220504153535719
S11308504F524420283420444947495429203A20FF
S113086000454E5445522055534552205459504545
S11308702028524F4F54203D203029207C202861CD
S1130880646D696E203D203129207C2028757365B4
S113089072203D20322920203A2000444F4E45202A
S11308A045444954494E47202E2E2E2E2E2E2E2EB0
S11308B02E2000494E56414C4944204944202E2EB6
S11308C02E2E2E2E2E2E2E2000494E56414C4944BB
S11308D0204F5054494F4E202E2E2E2E2E2E2E2E8B
S11308E02E2000494E56414C494420555345522030
S11308F04E414D45202E2E2E2E2E2E2E2E2E2000F5
S113090055534552204E414D4520555345442020D2
S11309102E2E2E2E2E2E2E2E2E2000494E56414C9B
S113092049442050415353574F5244202E2E2E2ECB
S11309302E2E2E2E2E200050415353574F5244201A
S11309405553454420202E2E2E2E2E2E2E2E2E2074
S11309500057524F4E472055534552205459504545
S1130960202E2E2E2E2E2E2E2E2E20002D2D2D2DF1
S11309702D2D2D2D2D2D2D2D2D2D2D2D2D2D2D2DA3
S11309802D2D2D2D2D2D2D2D2D2D2D2D2D2D2D2D93
S11309902D2D2D2D2D2D2D2D2D2D2D2D2D2D004598
S11309A04E544552204944204E554D424552203A1A
S11309B02000555345522044454C4554454420732A
S11309C075636365737366756C6C79202E2E2E2E99
S11309D02E2E2E2E2E2E00494E56414C4944205583
S11309E0534552202E2E2E2E2E2E2E2E2E2E0052DB
S11309F0455345542053595354454D20444F4E4577
S1130A00202E2E2E2E2E2E0011241FBECFE5D8E030
S1130A10DEBFCDBF11E0A0E6B0E0E4E1FCE602C039
S1130A2005900D92A63BB107D9F728E0A6EBB1E0FB
S1130A3001C01D92A234B207E1F70E947C080C9415
S1130A4008360C940000CF93DF931F92CDB7DEB726
S1130A508FEF89838DE790E00E944517BE016F5F99
S1130A607F4F8DE790E00E946918813069F420E09F
S1130A7044E150E0BE016F5F7F4F8091B6019091D9
S1130A80B7010E942E2BEACF82E390E00E946830E7
S1130A90E5CF9093B7018093B60108958091B60194
S1130AA09091B7010895CF93DF93CDB7DEB76897E0
S1130AB00FB6F894DEBF0FBECDBF19821A821C8A0E
S1130AC01D8A1E8A1F8A8DEA90E00E945B1A81E0CB
S1130AD08093B801B12CE12CFF24F3940F2EF3E0A2
S1130AE0DF2EF02D10E06894AA24A1F868949924CC
S1130AF092F89091B8019230E9F120F4913009F024
S1130B0075C107C0933009F46DC0943009F06EC10B
S1130B1051C119830E946607212F44E150E0BE01B0
S1130B206F5F7F4F0E942E2B65E0812F0E94D61AA3
S1130B308AE391E00E94AB1A0E944E054FEF5FEFEB
S1130B40BE01685E7F4F0E94212C813009F04EC1A6
S1130B50888D833209F04AC10E94C81A82E491E068
S1130B600E94AB1A612F8F2D0E94D61AA092B80151
S1130B70B12E3CC10E944E0548E853E1BE01685EB7
S1130B807F4F0E94212C813041F5888D8A3241F4B7
S1130B90BA948FEFB81609F428C10E94241B26C109
S1130BA0833259F48C898E878D898F878E89888BBF
S1130BB08F89898BD092B80119C193E09B1508F4F1
S1130BC015C10E94F11AE4E1F0E0EC0FFD1FEB0DFA
S1130BD0F11D888D8083B39409C10E94C81AF092D4
S1130BE0B80104C16FEF7FEF80912D0890912E081A
S1130BF00E94BA2C9E012E5E3F4FAE014D5F5F4FA7
S1130C00BE016C5F7F4FCE010E960E943F1E888FFF
S1130C10212F40E050E060E070E080912D08909139
S1130C202E080E942E2B888D81116EC00E94C81A36
S1130C30612F812F0E94D61A8AE391E00E94AB1A99
S1130C4065E08F2D0E94D61ACE0104960E94AB1A3D
S1130C508CED95E00E946830F9820E946607212F8E
S1130C6044E150E0BE016F5F7F4F0E942E2B0E9433
S1130C707708212F44E150E0BE016C5F7F4F0E9452
S1130C802E2BFA820E946D09212F44E150E0BE010F
S1130C906E5F7F4F0E942E2B0E94C81A65E0812F41
S1130CA00E94D61A82E591E00E94AB1A88E893E18B
S1130CB00E946830DA820E946D09212F44E150E0DD
S1130CC0BE016E5F7F4F0E942E2B0E94C81A65E002
S1130CD0812F0E94D61A8BE591E00E94AB1A88E816
S1130CE093E10E9468301A830E946D09212F44E128
S1130CF050E0BE016E5F7F4F0E942E2B0E94C81AE7
S1130D00F092B801E12E72C0CE2CC394DA8A0E940C
S1130D107708212F44E150E0BE016C5F7F4F0E94B1
S1130D202E2B0D2D0E94C81A612F812F0E94D61AD6
S1130D3083E691E00E94AB1A80E293E00E9468305F
S1130D40015081F70E94C81A6F2D812F0E94D61A74
S1130D5084E791E00E94AB1A6DE0812F0E94D61ABD
S1130D608E2D8F5C0E94A61A80E293E00E94683068
S1130D7083E0C81219C0A9820E946607212F44E1AA
S1130D8050E0BE016F5F7F4F0E942E2B0E94C81A55
S1130D9065E0812F0E94D61A80E891E00E94AB1A88
S1130DA09092B801EC2C22C00E94C81AF092B801AB
S1130DB0EC2C1CC06FEF7FEF8091B9019091BA01C8
S1130DC00E94BA2C0E94C81A84EF91E00E946830F5
S1130DD00E944E0540E050E0BE01685E7F4F0E94D5
S1130DE0212CF092B801E12E01C0B12E82E390E0F3
S1130DF00E9468307ECE9093BA018093B901089521
S1130E008091B9019091BA0108958091B801089533
S1130E10CF93DF931F92CDB7DEB784ED90E00E94AD
S1130E202E1B81ED90E00E942E1B89E790E00E942A
S1130E30061710E040E050E0BE016F5F7F4F8091E5
S1130E40BD019091BE010E94212C813009F41981C9
S1130E501130A9F018F0123069F722C084ED90E047
S1130E600E94531B81ED90E00E944E1B89E790E0A5
S1130E700E94201780ED97E00E946830DBCF84ED5C
S1130E8090E00E94531B81ED90E00E94481B89E78B
S1130E9090E00E94201788EE93E00E946830CACF49
S1130EA084ED90E00E944E1B81ED90E00E94531B64
S1130EB089E790E00E94251784EF91E00E94683052
S1130EC0B9CF9093BE018093BD0108958091BD0177
S1130ED09091BE0108950F931F93CF93DF93C1ECBC
S1130EE0D1E0888182958170805D0E9492278881FB
S1130EF08F70805D0E9492278AE30E94922700EC03
S1130F0011E0F801808182958F708770805D0E9466
S1130F109227F80180818F70805D0E9492278AE376
S1130F200E9492270FEB11E0F801808182958F7067
S1130F308770805D0E949227F80180818F70805DA8
S1130F400E949227888185FD0AC080E20E94922730
S1130F5081E40E9492278DE40E94922709C080E2D6
S1130F600E94922780E50E9492278DE40E94922796
S1130F7080E20E949227C3ECD1E0888182958F7031
S1130F808370805D0E94922788818F70805D0E94AB
S1130F9092278DE20E949227C4ECD1E08881829549
S1130FA08170805D0E94922788818F70805D0E948D
S1130FB092278DE20E949227C5ECD1E08881829528
S1130FC08F70805D0E94922788818F70805D0E945F
S1130FD092278DE00E949227DF91CF911F910F916C
S1130FE00895CF93DF93CDB7DEB760970FB6F8942B
S1130FF0DEBF0FBECDBF7E018AE0E80EF11C4FEFCD
S11310005FEFBE016F5F7F4F8091290890912A089E
S11310100E94212C813099F76FEF7FEF80912F0888
S1131020909130080E94BA2C813049F76FEF7FEF1E
S113103080912D0890912E080E94BA2C8130F9F6E7
S11310408FEB91E00E949A2020E040E050E060E0C5
S113105070E080912D0890912E080E942E2B8DE037
S11310600E9492278F85833021F08981811134C0B9
S113107021C086ED90E00E9496278B850E949227DE
S11310808C850E9492278D850E9492278E850E94CE
S113109092278EEE90E00E9496270E946B0710C064
S11310A0F80181918F01882329F00E9492270E155F
S11310B01F05B1F780E091E00E9496270E946B071C
S11310C020E040E050E060E070E080912F089091D3
S11310D030080E942E2B93CF0E9492278E010E5F20
S11310E01F4FDECF90932A0880932908089580919A
S11310F0290890912A080895789485E799E09093B7
S1131100EC008093EB0085EE90E00E94CA258DE20E
S113111091E00E94BF238BEF9DE09093FC008093AD
S1131120FB008DEE90E00E9463260E946E1D8230CB
S113113079F48BE091E00E9496278DE00E9492273B
S11311408091C9018130E1F70E94FB1F1092C9010F
S113115081E00E94402143E060E081E00E94FE2A99
S11311600E94FB0681E00E94D02B9093300880936C
S11311702F0881E00E94D02B90932E0880932D0895
S113118040E061E081E00E94FE2A0E94490540E0BF
S113119061E083E00E94FE2A0E94610740E061E072
S11311A082E00E94FE2A0E94680940E060E182E039
S11311B00E94FE2A0E94720840E061E08AE00E94D8
S11311C0FE2A0E94F60DE12CF12C04E020E030E030
S11311D044E650E067E871E083E295E00E94F22D76
S11311E003E020E030E044E650E060E971E083E5AC
S11311F095E00E94F22D01E020E030E044E650E06A
S113120066E971E088E097E00E94F22D04E020E0B6
S113121030E044E650E06CE971E089E299E00E9434
S1131220F22D02E020E030E046E950E064EA71E0AB
S113123085EA9EE00E94F22D20E030E044E650E092
S11312406BEA71E081EF97E00E94F22D0E94FD2E7F
S1131250FFCFCF93DF931F92CDB7DEB787ED90E03A
S11312600E940E204FEF5FEFBE016F5F7F4F8091B2
S1131270C6019091C7010E94212C813019F4898103
S11312808093C8018091C801813069F028F08230D0
S113129089F0833039F715C040E060E087ED90E0D5
S11312A00E944A20DFCF41E062E387ED90E00E9494
S11312B04A20D8CF40E060E087ED90E00E944A20C9
S11312C0D1CF42E062E387ED90E00E944A20CACF8A
S11312D09093C7018093C60108958091C6019091AF
S11312E0C70108958091C80108958091CA019FB1F2
S11312F0E82FF0E0E553FE4F90838F5F8093CA019F
S11313008430A9F4EBECF1E0A1E0B1E08FEC91E0E2
S113131040E031912D9132134F5FE817F907C9F777
S1131320411103C081E08093C9011092CA0108955C
S11313300E9405078430D9F06FEF7FEF80912F086A
S1131340909130080E94BA2C87E391E00E9496277E
S11313508DE00E94922720E040E050E060E070E0E1
S113136080912F08909130080E942E2B08956FEFE2
S11313707FEF80912F08909130080E94BA2C87E566
S113138091E00E9496278DE00E94922720E040E0A1
S113139050E060E070E080912F08909130080E9446
S11313A02E2B0E94000720E040E050E060E070E057
S11313B00E942E2B08951F93CF93DF9300D0CDB7B7
S11313C0DEB70E9472098A83811145C011E0198336
S11313D00E94660720E044E150E0BE016F5F7F4F4A
S11313E00E942E2B1A830E946D0920E04FEF5FEFBD
S11313F0BE016E5F7F4F0E942E2B6FEF7FEF8091B7
S11314002F08909130080E94BA2C8DE00E949227F8
S113141083E791E00E9496278DE00E94922720E0C6
S113142040E050E060E070E080912F089091300837
S11314300E942E2B88E893E10E94683082E08A8320
S11314400E946D0920E04FEF5FEFBE016E5F7F4F9A
S11314500E942E2B1DC06FEF7FEF80912F0890917B
S113146030080E94BA2C8DE00E9492278DE891E00A
S11314700E9496278DE00E94922720E040E050E0F1
S113148060E070E080912F08909130080E942E2B2C
S11314900F900F90DF91CF911F910895CF93DF9319
S11314A000D0CDB7DEB719820E9472098A838230D8
S11314B009F044C019820E94660720E044E150E02C
S11314C0BE016F5F7F4F0E942E2B83E08A830E94B0
S11314D06D0920E04FEF5FEFBE016E5F7F4F0E940A
S11314E02E2B6FEF7FEF80912F08909130080E9490
S11314F0BA2C8DE00E94922783EB91E00E949627FC
S11315008DE00E94922720E040E050E060E070E02F
S113151080912F08909130080E942E2B88E893E147
S11315200E9468301A820E946D0920E04FEF5FEF3D
S1131530BE016E5F7F4F0E942E2B1DC06FEF7FEFA9
S113154080912F08909130080E94BA2C8DE00E945F
S113155092278DEC91E00E9496278DE00E949227BD
S113156020E040E050E060E070E080912F0890912E
S113157030080E942E2B0F900F90DF91CF91089589
S11315809F92AF92BF92CF92DF92EF92FF920F930E
S11315901F93CF93DF93CDB7DEB728970FB6F89498
S11315A0DEBF0FBECDBF6FEF7FEF80912F0890910C
S11315B030080E94BA2C8DEE91E00E9496278DE0AF
S11315C00E94922700E010E00F2EF3E0CF2EF02DC2
S11315D06894DD24D1F80F2EFDECAF2EF02D992464
S11315E093946894EE24E2F80F2EF5E0FF2EF02D8C
S11315F00F2EF6E0BF2EF02D133009F49CC030F40A
S1131600113009F447C008F079C009C0153009F455
S113161001C108F4C6C0163009F05AC12CC18DE0CE
S11316200E9492278EE092E00E949627CE010396B4
S11316300E94120E8A3A09F05FC18B81982F915053
S11316409C3008F068C1893050F48887982F9064E2
S11316508F70907F892B8F7E8B83192D1BC08A9D61
S1131660212D1124922F969596959695990F392FA1
S1131670330F330F930F891B982F88878B818064D6
S11316809F70807F269526952695982B20FB94F9AC
S11316909B83192D8DE00E9492278DE192E00E9498
S11316A09627CE0102960E94120E8A3A09F024C1AE
S11316B08A818C3308F031C1893040F488878F7077
S11316C09A819078892B8A831D2D18C08A9D212D9B
S11316D01124922F969596959695990F392F330F3D
S11316E0330F930F891B982F88879F708A81807886
S11316F0220F2077982B922B9A831D2D8DE00E9428
S113170092278EE292E00E949627CE0108960E94CC
S1131710120E8A3A09F0F0C08885813029F48B8151
S11317208F7D8B831C2D07C0823009F0F8C08B811C
S113173080628B831C2D8DE00E9492278DE492E0C1
S11317400E949627CE0105960E94120E8A3A09F04D
S1131750D3C08D81982F91509F3108F0E2C0893019
S113176040F488878F709D81907C892B8D831E2DFA
S113177018C08A9D212D1124922F969596959695A1
S1131780990F392F330F330F930F891B982F8887A5
S11317909F708D81807C220F2073982B922B9D83C8
S11317A01E2D8DE00E9492278CE592E00E949627E0
S11317B0CE0106960E94120E8A3A09F09DC08E81CF
S11317C0982F91509C3008F0AEC0893048F4888737
S11317D08F709E81907F892B8F7E8E831F2D1AC0E0
S11317E08A9D212D1124922F969596959695990F61
S11317F0392F330F330F930F891B982F88879F70CE
S11318008E81807F269526952695982B20FB94F92A
S11318109E831F2D8DE00E9492278CE692E00E9409
S11318209627CE0107960E94120E8A3A09F064C0E8
S11318308F81843608F079C0893020F488878F70CE
S11318408F8319C02DEC829F212D1124922F969500
S113185096959695990F392F330F330F930F891B54
S1131860982F8887822F8695869586958295807F86
S11318709F70892B8F836FEF7FEF80912D0890915C
S11318802E080E94BA2CCE0101960E94D82020E096
S113189040E050E060E070E080912D0890912E08C7
S11318A00E942E2B8DE00E9492278BE792E00E94EB
S11318B096278DE00E94922720E040E050E060E00F
S11318C070E080912F08909130080E942E2B2FC039
S11318D0013008F491CE073020F0073009F08CCEA7
S11318E00BC08DE00E94922785E992E00E94962722
S11318F08DE00E94922780CE81E00E94851120E035
S113190040E050E060E070E080912F089091300852
S11319100E942E2B0CC0092DE4CF0D2DE2CF0C2DEF
S1131920E0CF0E2DDECF0F2DDCCF0B2DDACF289696
S11319300FB6F894DEBF0FBECDBFDF91CF911F91DC
S11319400F91FF90EF90DF90CF90BF90AF909F905A
S113195008958091D001813039F48091D10181536F
S1131960863018F08FEF08958FEF0895CF93DF93AB
S11319701F92CDB7DEB7E1EDF1E08BED91E011926E
S1131980E817F907E1F71092D00102C08093D00163
S113199040E157E2BE016F5F7F4F8091DB01909180
S11319A0DC010E94212C813031F589818D3029F0B0
S11319B0803419F1883099F402C08DE01FC0809101
S11319C0D001815018F08093D00102C01092D00150
S11319D0E091D001F0E0EF52FE4F1082D9CF909108
S11319E0D001E92FF0E0EF52FE4F8083892F8F5F03
S11319F08A3061F6CDCF85E501C080E40F90DF9198
S1131A00CF9108956FEF7FEF80912F089091300868
S1131A100E94BA2C8DE00E9492278CE693E00E94EB
S1131A2096278091CF018F5C0E9492278DE00E94BF
S1131A30922720E040E050E060E070E080912F08C1
S1131A40909130080E942E2B8091CF018F5F80935C
S1131A50CF01833021F485E080936000089582E013
S1131A608093600008956FEF7FEF80912F0890912D
S1131A7030080E94BA2C8DE00E9492278DE594E0F4
S1131A800E9496278DE00E94922787E794E00E94A7
S1131A9096278DE00E9492278FE894E00E94962773
S1131AA08DE00E94922784EA94E00E9496278DE0BC
S1131AB00E9492278BEB94E00E9496278DE00E946F
S1131AC092278CED94E00E9496278DE00E94922745
S1131AD08DE00E94922720E040E050E060E070E05A
S1131AE080912F08909130080E942E2B089584EF46
S1131AF094E00E9496270E94B60C8D30A9F40E94AF
S1131B00A90C8F3FB1F0853021F483E0809360000D
S1131B100895E82FF0E0EE0FFF1FEF59FF4F0190FB
S1131B20F081E02D09950895853519F481E08093BD
S1131B30600008951F93CF93DF93CDB7DEB761970D
S1131B400FB6F894DEBF0FBECDBF0E94B60C8D3029
S1131B50B9F58091D0018430D1F56FEF7FEF80919A
S1131B602D0890912E080E94BA2C9E01215F3F4FB0
S1131B70AE014F5E5F4FBE016F5F7F4F81ED91E01D
S1131B800E943F1E182F20E040E050E060E070E02B
S1131B9080912D0890912E080E942E2B111119C0AE
S1131BA089898093410880E1FE013196A1E3B8E080
S1131BB001900D928A95E1F71092CF0180E00CC05C
S1131BC0853549F481E08093600085E505C08FEF99
S1131BD003C08FEF01C08FEF61960FB6F894DEBF9C
S1131BE00FBECDBFDF91CF911F9108959093DC017B
S1131BF08093DB010895CF93DF931F92CDB7DEB7B7
S1131C008CB1898320E040E050E0BE016F5F7F4FDC
S1131C108091DB019091DC010E94EB2B0F90DF910E
S1131C20CF910895CF93DF93EC010E94B60C8D30D1
S1131C30C9F58091D001813031F48091D101805374
S1131C4088838AEA34C0823079F49091D201905327
S1131C508091D1018053880F282F220F220F820FE9
S1131C60890F88838AEA23C08330F1F48091D101FB
S1131C7080539091D20190532091D301205382300C
S1131C8020F0953010F0263088F4990F392F330F57
S1131C90330F930F34E6839F900D1124290F28836B
S1131CA08AEA05C085E503C085E501C085E5DF91C5
S1131CB0CF910895CF93DF93EC010E94B60C8D3041
S1131CC0C1F43091D0013B30B0F4332369F0E1ED3D
S1131CD0F1E0DE01832F815090E08E529E4F2191DE
S1131CE02D93E817F907D9F7C30FD11D188280E0A7
S1131CF003C085E501C08AEADF91CF910895CF93AF
S1131D00DF93D82FC92F0E94B60C8D3089F48091AF
S1131D10D0018430A1F4E1EDF1E0AD2FBC2F85EDCD
S1131D2091E021912D93E817F907D9F780E00AC0D3
S1131D30853539F481E0809360008FEF03C08FEF25
S1131D4001C08FEFDF91CF910895CF93DF931F925E
S1131D50CDB7DEB70FE318E00F2EF3E05F2EF02DC2
S1131D60772473946894222422F80F2EF1E3EF2E43
S1131D70F8E0FF2EF02D0F2EF2E53F2EF02D0F2E62
S1131D80F2E38F2EF8E09F2EF02D0F2EFFE46F2E3E
S1131D90F02D0F2EF3E3AF2EF8E0BF2EF02D0F2E13
S1131DA0F4E3CF2EF8E0DF2EF02D0F2EF4E54F2EC6
S1131DB0F02D80916000823009F409C128F4882351
S1131DC059F08130C1F7EDC0843009F4BAC108F488
S1131DD04DC1853081F723C26FEF7FEF80912D08CD
S1131DE090912E080E94BA2C0E94C61F20E040E069
S1131DF050E060E070E080912D0890912E080E94E0
S1131E002E2B6FEF7FEF80912F08909130080E9466
S1131E10BA2C8DE00E9492278CEA92E00E949627C9
S1131E2020E040E050E060E070E080912F08909165
S1131E3030080E942E2B0E949A0D811191C06FEFE1
S1131E407FEF80912F08909130080E94BA2C8DE08A
S1131E500E94922783EC92E00E9496278DE00E94D4
S1131E6092278DE00E94922787ED92E00E949627A8
S1131E7020E040E050E060E070E080912F08909115
S1131E8030080E942E2B8BE398E00E947F0E811174
S1131E9046C0F7013082F4016082F5016082F601E8
S1131EA04082F80110826FEF7FEF80912D089091AE
S1131EB02E080E94BA2C60E0C7010E94B61F20E0E1
S1131EC040E050E060E070E080912D0890912E0891
S1131ED00E942E2B6FEF7FEF80912F089091300896
S1131EE00E94BA2C8DE00E9492278FEE92E00E940D
S1131EF096278DE00E9492278DE00E94922720E091
S1131F0040E050E060E070E080912F08909130084C
S1131F100E942E2B0E94C00A709260004ACF6FEF7D
S1131F207FEF80912F08909130080E94BA2C8DE0A9
S1131F300E9492278CE093E00E9496278DE00E94F5
S1131F4092278DE00E94922720E040E050E060E07C
S1131F5070E080912F08909130080E942E2B29CF99
S1131F606FEF7FEF80912F08909130080E94BA2C78
S1131F708DE00E94922784E293E00E9496278DE0F0
S1131F800E9492278DE00E94922720E040E050E0DA
S1131F9060E070E080912F08909130080E942E2B11
S1131FA008CF8DE00E9492278CE393E00E9496274D
S1131FB04FEF5FEFBE016F5F7F4F8091DB01909128
S1131FC0DC010E94212C8981803459F79AC16FEF7A
S1131FD07FEF80912F08909130080E94BA2C8DE0F9
S1131FE00E94922780E493E00E94962720E040E03C
S1131FF050E060E070E080912F08909130080E94DA
S11320002E2B0E949A0D811129C0F8018081823003
S113201018F00E94020DCDCE6FEF7FEF80912F0854
S1132020909130080E94BA2C8DE00E94922788E596
S113203093E00E9496278DE00E94922720E040E0E2
S113204050E060E070E080912F08909130080E9489
S11320502E2B1092CF0150926000ABCE853519F42F
S113206070926000A6CE0E94020DA3CE6FEF7FEFA8
S113207080912F08909130080E94BA2C8DE00E9424
S1132080922789E793E00E9496278DE00E94922789
S113209086E993E00E9496278DE00E9492278DEABC
S11320A093E00E9496278DE00E94922785EC93E0AE
S11320B00E9496278DE00E9492278DED93E00E9466
S11320C096278DE00E94922789EF93E00E9496273D
S11320D08DE00E9492278DE00E94922720E040E04C
S11320E050E060E070E080912F08909130080E94E9
S11320F02E2B8BE094E00E9496270E94B60C8D3024
S1132100D1F40E94A90C8F3F09F453CE843019F402
S1132110209260004ECE853019F47092600049CE52
S1132120E82FF0E0EE0FFF1FE359FF4F0190F0811D
S1132130E02D09953ECE853509F03BCE70926000C6
S113214038CEF8018081882309F464C06FEF7FEFF3
S113215080912F08909130080E94BA2C8FE094E06F
S11321600E94962720E040E050E060E070E080911B
S11321702F08909130080E942E2B0E949A0D8111F5
S113218029C0F8018081811105C00E94330D0E948D
S1132190770D0FCE6FEF7FEF80912F08909130086D
S11321A00E94BA2C8DE00E9492278BE294E00E9458
S11321B096278DE00E94922720E040E050E060E006
S11321C070E080912F08909130080E942E2B50923D
S11321D06000EFCD6FEF7FEF80912F089091300872
S11321E00E94BA2C8DE00E94922783E494E00E941E
S11321F096278DE00E94922720E040E050E060E0C6
S113220070E080912F08909130080E942E2B5092FC
S11322106000CFCD0E94330D0E94770DCACD6FEFC1
S11322207FEF80912F08909130080E94BA2C8DE0A6
S11322300E9492278DE00E94922788EF94E00E94EA
S113224096278DE00E9492278EE095E00E949627C3
S113225020E040E050E060E070E080912F08909131
S113226030080E942E2B0E949A0D811109C0F8019A
S1132270808181119ECD1092DD017092600099CD14
S11322808091DD018F5F8093DD01833009F091CD72
S11322906FEF7FEF80912F08909130080E94BA2C45
S11322A08DE00E9492278DE00E9492278FE295E0B4
S11322B00E9496278DE00E94922720E040E050E0A3
S11322C060E070E080912F08909130080E942E2BDE
S11322D00E94E81F8091C901811108C084EF91E038
S11322E00E9468308091C9018823C1F31092DD01F6
S11322F01092CF011092C9010E94FB1F70926000DE
S113230058CD82E08093600054CD8093600008959E
S1132310AF92BF92CF92DF92EF92FF920F931F93EF
S1132320CF93DF93CDB7DEB768970FB6F894DEBFCF
S11323300FBECDBF6FEF7FEF80912F0890913008D3
S11323400E94BA2CCE0141960E94311C8DE00E945D
S113235092278BE595E00E9496278DE00E949227B4
S11323608EE895E00E9496278DE00E9492278AEAE3
S113237095E00E9496278DE00E94922700E010E0ED
S1132380EE24E394F12C6E018AE0C80ED11CA7015F
S1132390002E02C0440F551F0A94E2F7662757FD2A
S11323A06095762F89899A89AB89BC8948235923FA
S11323B06A237B23002E04C076956795579547952D
S11323C00A94D2F7413051056105710509F04FC0F7
S11323D06FEF7FEF80912D0890912E080E94BA2C08
S11323E0602FCE0101960E94AF1D20E040E050E036
S11323F060E070E080912D0890912E080E942E2BB1
S1132400802F8F5C0E94922785EC95E00E9496278E
S1132410898181113EC00AC0F50181915F01882341
S113242029F00E949227AC14BD04B1F789EC95E021
S11324300E9496278F85811105C080ED95E00E944A
S113244096270BC0813029F48BED95E00E949627E6
S113245004C087EE95E00E9496278DE00E949227A3
S113246084EF95E00E9496278DE00E9492270F5FEB
S11324701F4F0931110509F08ACF20E040E050E0F8
S113248060E070E080912F08909130080E942E2B1C
S113249009C00E9492276894AA24A1F8B12CAC0E1A
S11324A0BD1EBACF68960FB6F894DEBF0FBECDBF7F
S11324B0DF91CF911F910F91FF90EF90DF90CF901C
S11324C0BF90AF900895BF92CF92DF92EF92FF92A8
S11324D00F931F93CF93DF93CDB7DEB76C970FB6EF
S11324E0F894DEBF0FBECDBF6FEF7FEF80912F0852
S11324F0909130080E94BA2C8FE196E00E949627B2
S11325008DE00E94922780E010E002E0FF24F39423
S11325100F2EF3E0CF2EF02D6894DD24D2F80F2E89
S1132520F5E0EF2EF02D113099F138F0123009F466
S113253061C0133009F0B6C06FC080E496E00E9419
S11325409627CE0101960E945A0E81111CC06FEF8E
S11325507FEF80912D0890912E080E94BA2CCE0115
S113256001960E94DF1DB82E20E040E050E060E0BC
S113257070E080912D0890912E080E942E2B8FEFF1
S1132580B812B0C004C08A3A09F0E8C09CC01F2D3C
S11325908DE00E94922780E696E00E949627CE0165
S11325A00B960E947F0E8111ACC06FEF7FEF80917C
S11325B02D0890912E080E94BA2C9E012E5E3F4F4A
S11325C0AE014F5E5F4FBE016D5E7F4FCE010B9635
S11325D00E943F1EB82E20E040E050E060E070E032
S11325E080912D0890912E080E942E2B8FEFB81207
S11325F097C0102F8DE00E94922781E896E00E94F8
S11326009627CE010F960E94120E8A3A09F0A6C0B0
S11326108F85833008F093C06FEF7FEF80912D0892
S113262090912E080E94BA2CCE0101960E94D81EC9
S1132630182F20E040E050E060E070E080912D0829
S113264090912E080E942E2B1F3FB1F08DE00E9426
S113265092278BEB96E00E9496278DE00E949227AA
S113266020E040E050E060E070E080912F0890911D
S113267030080E942E2B7DC08DE00E9492278BEDA6
S113268096E00E9496278DE00E94922720E040E089
S113269050E060E070E080912F08909130080E9433
S11326A02E2B67C0833069F130F4813061F08230C1
S11326B009F039CF17C0853009F441C088F186305C
S11326C009F031CF4BC08DE00E9492278AE197E058
S11326D00E9496278DE00E9492278DE00E94922707
S11326E08F2D21CF8DE00E94922781E497E00E94F4
S11326F096278DE00E9492278DE00E949227802FDA
S113270012CF8DE00E9492278EE597E00E949627D3
S11327108DE00E9492278DE00E9492278C2D03CF9A
S11327208DE00E94922782E897E00E9496278DE030
S11327300E9492278DE00E9492278D2DF4CE8DE089
S11327400E9492278EE997E00E9496278DE00E94CE
S113275092278DE00E9492278E2DE5CE20E040E066
S113276050E060E070E080912F08909130080E9462
S11327702E2B6C960FB6F894DEBF0FBECDBFDF9143
S1132780CF911F910F91FF90EF90DF90CF90BF906A
S113279008958F929F92AF92BF92CF92DF92EF9261
S11327A0FF920F931F93CF93DF93CDB7DEB7A1971B
S11327B00FB6F894DEBF0FBECDBF6FEF7FEF8091F1
S11327C02F08909130080E94BA2C89EB97E00E9460
S11327D096278DE00E94922780E000E010E00F2E03
S11327E0F7E09F2EF02D0F2EF6E0AF2EF02D0F2EDA
S11327F0F5E0FF2EF02D6894DD24D1F8BB24B394CA
S11328006894EE24E2F80F2EF3E0CF2EF02D123070
S113281009F46CC030F4112369F0113009F063C17C
S11328204CC0143009F4C1C008F48DC0153009F04F
S11328305AC1CEC08DE00E9492278AED97E00E9493
S11328409627CE0142960E94120E8A3A09F0C7C119
S11328508A8981508A8B6FEF7FEF80912D08909148
S11328602E080E94BA2C8A890E94711F882E20E0AB
S113287040E050E060E070E080912D0890912E08D7
S11328800E942E2B811042C16FEF7FEF80912D08A3
S113289090912E080E94BA2C6A89CE0102960E9459
S11328A0AF1D20E040E050E060E070E080912D0832
S11328B090912E080E942E2B1B2D8DE00E949227B2
S11328C08BEE97E00E949627CE0143960E94120E4B
S11328D08A3A09F084C18B89813009F48CC1823031
S11328E009F48BC1833009F020C189C18DE00E94B5
S11328F0922780E298E00E949627CE0144960E9497
S11329005A0E81111CC06FEF7FEF80912D089091BA
S11329102E080E94BA2CCE0144960E94DF1D882EF8
S113292020E040E050E060E070E080912D0890915C
S11329302E080E942E2B8FEF881215C162C18A3A8D
S113294009F04DC101C18DE00E94922780E498E016
S11329500E949627CE014E960E947F0E811112C1CD
S11329606FEF7FEF80912D0890912E080E94BA2C72
S11329709E012D5E3F4FAE014F5F5F4FBE016C5E07
S11329807F4FCE014E960E943F1E882E20E040E0ED
S113299050E060E070E080912D0890912E080E9434
S11329A02E2B8FEF8812FDC02FC18DE00E9492273D
S11329B081E698E00E949627CE0143960E94120E6B
S11329C08A3A09F00CC18B89833008F420C1F8C01D
S11329D0023021F5FE017496DE011296CE014D9669
S11329E021912D93E817F907D9F76FEF7FEF8091C5
S11329F02D0890912E080E94BA2C6A89CE01029665
S1132A000E94B61F20E040E050E060E070E080915A
S1132A102D0890912E080E942E2B4CC0033009F5EE
S1132A208E8D8C878F8D8D8788A18E8789A18F87C6
S1132A306FEF7FEF80912D0890912E080E94BA2CA1
S1132A406A89CE0102960E94B61F20E040E050E061
S1132A5060E070E080912D0890912E080E942E2B4A
S1132A6029C00430D9F48B89888B6FEF7FEF809174
S1132A702D0890912E080E94BA2C6A89CE010296E4
S1132A800E94B61F20E040E050E060E070E08091DA
S1132A902D0890912E080E942E2B0CC020E040E0BF
S1132AA050E060E070E080912F08909130080E941F
S1132AB02E2BB1C08DE00E9492278BE998E00E94F2
S1132AC096278DE00E9492278DE00E94922720E0B5
S1132AD040E050E060E070E080912F089091300871
S1132AE00E942E2B98C08430F1F138F48230E9F042
S1132AF058F5813009F08BCE09C0863009F451C0F5
S1132B0008F440C0873009F082CE5AC08DE00E949C
S1132B10922783EB98E00E9496278DE00E949227EB
S1132B208DE00E9492278B2D72CE8DE00E94922719
S1132B3089EC98E00E9496278DE00E9492278DE010
S1132B400E9492278D2D63CE8DE00E94922783EE02
S1132B5098E00E9496278DE00E9492278DE00E94C3
S1132B6092278C2D54CE8DE00E94922780E099E02C
S1132B700E9496278DE00E9492278DE00E94922762
S1132B808E2D45CE8DE00E9492278BE199E00E9424
S1132B9096278DE00E9492278DE00E9492278F2D28
S1132BA036CE8DE00E94922787E399E00E94962713
S1132BB08DE00E9492278DE00E9492278A2D27CED5
S1132BC08DE00E94922781E599E00E9496278DE08E
S1132BD00E9492278DE00E949227892D18CE20E032
S1132BE040E050E060E070E080912F089091300860
S1132BF00E942E2B10C01D2D0CC01C2D0AC01E2D92
S1132C0008C00D2D1F2D05C00C2D1F2D02C00E2D2B
S1132C101F2D80E0FCCDA1960FB6F894DEBF0FBE49
S1132C20CDBFDF91CF911F910F91FF90EF90DF9077
S1132C30CF90BF90AF909F908F9008950F931F9364
S1132C40CF93DF931F92CDB7DEB76FEF7FEF809105
S1132C502F08909130080E94BA2C8DE00E94922790
S1132C608CE699E00E94962720E040E050E060E086
S1132C7070E080912F08909130080E942E2B80E004
S1132C8011E001C0812F882319F08130E1F745C09C
S1132C906FEF7FEF80912F08909130080E94BA2C3B
S1132CA08DE00E9492278FE999E00E94962720E008
S1132CB040E050E060E070E080912F08909130088F
S1132CC00E942E2BCE0101960E94120E8A3A09F020
S1132CD073C0898181508983882309F455C089315F
S1132CE008F052C06FEF7FEF80912D0890912E086D
S1132CF00E94BA2C89810E94711F082F20E040E0B5
S1132D0050E060E070E080912D0890912E080E94C0
S1132D102E2B002309F4B6CF37C06FEF7FEF8091DD
S1132D202D0890912E080E94BA2C89810E94341F8C
S1132D3020E040E050E060E070E080912D08909148
S1132D402E080E942E2B6FEF7FEF80912F08909119
S1132D5030080E94BA2C8DE00E94922782EB99E001
S1132D600E9496278DE00E9492278DE00E94922770
S1132D7020E040E050E060E070E080912F08909106
S1132D8030080E942E2B18C08DE00E94922787EDF8
S1132D9099E00E9496278DE00E9492278DE00E9480
S1132DA0922720E040E050E060E070E080912F083E
S1132DB0909130080E942E2B0F90DF91CF911F919C
S1132DC00F91089580E00E9485116FEF7FEF80914D
S1132DD02F08909130080E94BA2C8DE00E9492270F
S1132DE08FEE99E00E9496278DE00E9492278DE055
S1132DF00E94922720E040E050E060E070E0809183
S1132E002F08909130080E942E2B0895CF93DF93C2
S1132E1000D000D0CDB7DEB7FC0181E08B83828186
S1132E208C8381818A8380818983CE0101960E946B
S1132E30DE210F900F900F900F90DF91CF910895A6
S1132E40FC0112820E94E52208950F931F93CF93F1
S1132E50DF9300D0CDB7DEB78C01FC0181818A837A
S1132E6080818983CE0101960E94582391E08111CB
S1132E7090E0F8019283C8010E94E5220F900F9020
S1132E80DF91CF911F910F910895CF93DF93EC01C0
S1132E90E881F98181E08383EA81FB818383EC818A
S1132EA0FD818383EC81FD818383888199810E94E4
S1132EB0DE218A819B810E94DE218C819D810E947A
S1132EC0DE218E819F810E94DE21888599850E9462
S1132ED0DE218A859B850E94DE218C859D850E944A
S1132EE0DE218E859F850E94DE21DF91CF9108959A
S1132EF0BF92CF92DF92EF92FF920F931F93CF93E3
S1132F00DF9300D000D01F92CDB7DEB78C01F12C37
S1132F10EE24E394D801ED91FC9180818983818131
S1132F208A83EB82CE0101960E94E522D801129693
S1132F30ED91FC9113978081898381818A83EB824F
S1132F40CE0101960E94E522D8011496ED91FC91E0
S1132F5015978081898381818A83EB82CE010196D2
S1132F600E94E522D8011696ED91FC911797808175
S1132F70898381818A83EB82CE0101960E94E522B6
S1132F80B1E0FB16B1F0FB1638F082E0F81601F15F
S1132F90A3E0FA123AC02BC0D801ED91FC918081D4
S1132FA0898381818A831B82CE0101960E94E52256
S1132FB02CC0D8011296ED91FC91139780818983DE
S1132FC081818A831B82CE0101960E94E5221DC065
S1132FD0D8011496ED91FC911597808189838181A4
S1132FE08A831B82CE0101960E94E5220EC0D8017D
S1132FF01696ED91FC9117978081898381818A834C
S11330001B82CE0101960E94E522D8011896ED910B
S1133010FC91199780818C8381818D83CE010496E4
S11330200E945823D82ED8011A96ED91FC911B9733
S113303080818C8381818D83CE0104960E945823E4
S1133040C82ED8011C96ED91FC911D9790819C830C
S113305091819D83CE0104960E945823B82ED801F5
S11330601E96ED91FC911F9790819C8391819D8385
S1133070CE0104960E945823DD2061F0CC2061F03B
S1133080BB2061F0882361F0F394B4E0FB1242CFDB
S11330908FEF10C0E0E005C0E1E003C0E2E001C052
S11330A0E3E0F0E084E0F89EE00DF11D1124EB5F15
S11330B0FE4F80810F900F900F900F900F90DF9133
S11330C0CF911F910F91FF90EF90DF90CF90BF9021
S11330D00895CF93DF939C01EB018091DE01813051
S11330E099F028F08230E9F08330A9F527C0C901AE
S11330F00E947817982F8F3F19F41092DE013BC07D
S113310081E08093DE0134C0C9010E9478178F3FAB
S113311021F483E08093DE012EC082E08093DE01FF
S11331202AC0C9010E9478178F3F21F483E080935D
S1133130DE0121C082E08093DE011DC0C9010E942E
S11331407817982F8F3F19F41092DE0114C081E094
S11331508093DE010DC0813029F49FEF90937C00B1
S113316098830CC0833051F490917C00988306C0FE
S11331708091DE01F3CF8091DE01F4CFDF91CF9116
S11331800895CF93DF9300D01F92CDB7DEB7E091BF
S1133190DF01F091E0010284F385E02D80818983D1
S11331A081818A8381E08B83CE0101960E94E5228E
S11331B08AE68A95F1F700C0E091DF01F091E00121
S11331C00284F385E02D8081898381818A831B8237
S11331D0CE0101960E94E5228AE68A95F1F700C0A5
S11331E00F900F900F90DF91CF9108951F93CF937D
S11331F0DF9300D01F92CDB7DEB7162F811111C017
S1133200E091DF01F091E0010084F185E02D8081FF
S1133210898381818A831B82CE0101960E94E522E3
S113322011C0E091DF01F091E0010084F185E02D0F
S11332308081898381818A8381E08B83CE01019699
S11332400E94E52214FF14C0E091DF01F091E00137
S1133250A081B1818C9189830190F081E02D8181DD
S11332608A8381E08B83CE0101960E94E52212C0FD
S1133270E091DF01F091E001A081B1818C9189831B
S11332800190F081E02D81818A831B82CE01019619
S11332900E94E52215FF12C0E091DF01F091E001E8
S11332A00280F381E02D8081898381818A8381E09A
S11332B08B83CE0101960E94E52210C0E091DF01CC
S11332C0F091E0010280F381E02D80818983818186
S11332D08A831B82CE0101960E94E52216FF12C04A
S11332E0E091DF01F091E0010480F581E02D80811F
S11332F0898381818A8381E08B83CE0101960E9438
S1133300E52210C0E091DF01F091E0010480F58135
S1133310E02D8081898381818A831B82CE0101967D
S11333200E94E522112394F4E091DF01F091E00181
S11333300680F781E02D8081898381818A8381E001
S11333408B83CE0101960E94E52210C0E091DF013B
S1133350F091E0010680F781E02D808189838181ED
S11333608A831B82CE0101960E94E5220E94C11825
S11333708FE39FE10197F1F700C0000010FF14C034
S1133380E091DF01F091E001A081B1818C9189830A
S11333900190F081E02D81818A8381E08B83CE01CD
S11333A001960E94E52212C0E091DF01F091E00154
S11333B0A081B1818C9189830190F081E02D81817C
S11333C08A831B82CE0101960E94E52211FF12C05E
S11333D0E091DF01F091E0010280F381E02D808132
S11333E0898381818A8381E08B83CE0101960E9447
S11333F0E52210C0E091DF01F091E0010280F38149
S1133400E02D8081898381818A831B82CE0101968C
S11334100E94E52212FF12C0E091DF01F091E00169
S11334200480F581E02D8081898381818A8381E014
S11334308B83CE0101960E94E52210C0E091DF014A
S1133440F091E0010480F581E02D80818983818100
S11334508A831B82CE0101960E94E52213FF12C0CB
S1133460E091DF01F091E0010680F781E02D808199
S1133470898381818A8381E08B83CE0101960E94B6
S1133480E52210C0E091DF01F091E0010680F781B0
S1133490E02D8081898381818A831B82CE010196FC
S11334A00E94E5220E94C1180F900F900F90DF91A7
S11334B0CF911F9108959093E0018093DF01FC0167
S11334C0808191810E94DE21E091DF01F091E00191
S11334D0828193810E94DE21E091DF01F091E0017D
S11334E0848195810E94DE21E091DF01F091E00169
S11334F0868197810E94DE21E091DF01F091E00155
S1133500808591850E94DE21E091DF01F091E00148
S1133510828593850E94DE21FFEF29EF80E0F15040
S113352020408040E1F700C0000063E380E00E9497
S1133530F61862E380E00E94F61868E280E00E94D8
S1133540F6186CE080E00E94F6180895682F81E078
S11335500E94F6180895CF93DF93009771F0FC0151
S11335606081662361F0EC01219681E00E94F618E7
S113357069916111FACF80E003C081E001C080E06D
S1133580DF91CF910895682F80E00E94F618089586
S113359061E080E00E94F6182FEF81EE94E0215064
S11335A080409040E1F700C000000895882319F09E
S11335B0813089F408C0603180F4605880E00E9452
S11335C0F61880E00895603150F4605480E00E9461
S11335D0F61880E0089582E0089583E0089583E07A
S11335E008950E94A61A2FEF85EA9EE0215080409C
S11335F09040E1F700C0000080E10E94C31A2FEF61
S113360089EF90E0215080409040E1F700C0000035
S113361080E20E94A61A2FEF85EA9EE021508040A6
S11336209040E1F700C0000080E10E94C31A2FEF30
S113363089EF90E0215080409040E1F700C0000005
S11336408AE20E94A61A089580E10E94C31A80E2C9
S11336500E94A61A80E10E94C31A0895CF93DF93B3
S113366000D000D0CDB7DEB7FC0181E08B8382812E
S11336708C8381818A8380818983CE0101960E9413
S1133680DE210F900F900F900F90DF91CF9108954E
S113369021E0FC0122830E94E5220895FC011282AC
S11336A00E94E52208950F931F93CF93DF9300D0D8
S11336B0CDB7DEB78C01FC0181818A838081898347
S11336C0CE0101960E94582391E0811190E0F80107
S11336D09283C8010E94E5220F900F90DF91CF9151
S11336E01F910F910895DF92EF92FF920F931F9312
S11336F0CF93DF93EC018B01E42EF12CE114F10460
S113370081F1E80EF91E0F2EF0EADF2EF02D0E9453
S11337106024CF3FD10509F040F460E08D2D0E9474
S11337206D248C2F0E9489240BC060E082EA0E94E1
S11337306D248C2F0E9489240F2EF2EADF2EF02DA7
S1133740F80181918F010E9489240E94932421967B
S11337508FE99FE00197F1F700C00000CE15DF0567
S1133760B1F6DF91CF911F910F91FF90EF90DF9011
S11337700895DF92EF92FF920F931F93CF93DF93FD
S1133780EC018B01E42EF12CE114F10409F441C0A5
S1133790E80EF91E0F2EF0EADF2EF02D0E946024B1
S11337A0CF3FD10509F090F460E08D2D0E946D2487
S11337B08C2F0E9489240E94962461E08D2D0E9402
S11337C06D2461E0C8010E94A32415C060E082EA70
S11337D00E946D248C2F0E9489240E94962461E00B
S11337E082EA0E946D2461E0C8010E94A3240F2E86
S11337F0F2EADF2EF02D0F5F1F4F21960E949324D3
S11338008FE99FE00197F1F700C00000CE15DF05B6
S113381029F6DF91CF911F910F91FF90EF90DF90E8
S11338200895CF93DF9300D0CDB7DEB719821A8203
S113383041E0BE016F5F7F4F81E090E00E94B91BC1
S113384041E0BE016E5F7F4F82E090E00E94B91BB1
S113385089819A81891380E00F900F90DF91CF9135
S113386008950F931F93CF93DF93EC010E94111CD3
S1133870082F000F000F000F44E0BE01802F90E0DE
S11338800E94B91B10E0BE016C5F7F4F42E0C8018B
S113389004960E94B91BBE016A5F7F4F41E0C801D4
S11338A006960E94B91BBE01695F7F4F41E0C801C3
S11338B007960E94B91B288139818A819B81830FD5
S11338C0820F890F9E81981711F081E08F83DF9119
S11338D0CF911F910F910895CF93DF931F92CDB78E
S11338E0DEB7898341E0BE016F5F7F4F81E090E0E6
S11338F00E94731B41E0BE016F5F7F4F82E090E046
S11339000E94731B0F90DF91CF910895EF92FF9265
S11339100F931F93CF93DF931F92CDB7DEB78C0124
S113392019820E94111CF801248135812F5F3F4FB9
S1133930358324832E3F3F4F31F48F5F0E946C1CEC
S1133940F801158214820E94111CE82EEE0CEE0C74
S1133950EE0CF8018081418132812381548195816B
S1133960850F840F830F820F890F898344E0B80188
S11339708E2D90E00E94731BF12CB8016C5F7F4F79
S113398042E0C70104960E94731B41E0BE016F5FD1
S11339907F4FC70106960E94731B41E0BE016F5F13
S11339A07F4FC70107960E94731B0F90DF91CF9141
S11339B01F910F91FF90EF9008951F93CF93DF9382
S11339C0CDB7DEB728970FB6F894DEBF0FBECDBFD4
S11339D0182FCE0101960E94311C21E030E0A9018C
S11339E002C0440F551F1A95E2F7662757FD6095EC
S11339F0762F89819A81AB81BC81842B952BA62B50
S1133A00B72B89839A83AB83BC83CE0101960E9432
S1133A10861C28960FB6F894DEBF0FBECDBFDF918B
S1133A20CF911F910895EF92FF920F931F93CF931D
S1133A30DF931F92CDB7DEB78C01FC0191818081A9
S1133A40890F9281890F9381890F9481890F9581C0
S1133A50890F9681890F9781890F9085890F9185A8
S1133A60890F9285890F9385890F9485890F958590
S1133A70890F9685890F8983E62EF12CF7E0EF0EE6
S1133A80F11CEE0CFF1CEE0CFF1CEE0CFF1CEE0CEC
S1133A90FF1C4AE0B801C7010E94731BB801665FAE
S1133AA07F4F44E0C7010A960E94731BB801625F0E
S1133AB07F4F41E0C7010E960E94731B41E0BE0197
S1133AC06F5F7F4FC7010F960E94731B0F90DF91AA
S1133AD0CF911F910F91FF90EF900895CF93DF93B3
S1133AE01F92CDB7DEB7198241E0BE016F5F7F4FF1
S1133AF080E090E00E94B91B89818A3AF1F08AEA59
S1133B00898341E0BE016F5F7F4F80E090E00E94B7
S1133B10731B81E00E946C1C85E191E00E94861C6D
S1133B2080E00E94DD1C60E08DE191E00E94131DA5
S1133B3080E00E94851181E00EC041E0BE016F5F0C
S1133B407F4F84E090E00E94B91B89818A3A11F486
S1133B5082E001C080E00F90DF91CF9108950F9330
S1133B601F93CF93DF938C01C62FD0E02796C29585
S1133B70D295D07FDC27C07FDC274AE0BC01CE0190
S1133B800E94B91BB801665F7F4F44E0CE010A96DC
S1133B900E94B91BB801625F7F4F41E0CE010E96CF
S1133BA00E94B91BB801615F7F4F41E0CE010F96BF
S1133BB00E94B91BDF91CF911F910F910895BF927D
S1133BC0CF92DF92EF92FF920F931F93CF93DF93E5
S1133BD0CDB7DEB768970FB6F894DEBF0FBECDBF82
S1133BE07C01CE0141960E94311C00E010E0CC24FF
S1133BF0C394D12CB02EA601002E02C0440F551F31
S1133C000A94E2F7662757FD6095762F89899A8989
S1133C10AB89BC89482359236A237B23002E04C023
S1133C2076956795579547950A94D2F74130510593
S1133C306105710561F4602FCE0101960E94AF1DEC
S1133C40B701CE0101960E94FF35882339F00F5F3A
S1133C501F4F0931110571F6BB24BA948B2D689658
S1133C600FB6F894DEBF0FBECDBFDF91CF911F9189
S1133C700F91FF90EF90DF90CF90BF9008952F9217
S1133C803F924F925F926F927F928F929F92AF92E8
S1133C90BF92CF92DF92EF92FF920F931F93CF9335
S1133CA0DF93CDB7DEB76A970FB6F894DEBF0FBEC9
S1133CB0CDBF482E592E362E272E4A013A8F298FF2
S1133CC0CE0141960E94311C00E010E0EE24E39402
S1133CD0F12CAA24A394B12CAC0EBD1E6E018FE06E
S1133CE0C80ED11C612C702EC701002E02C0880F93
S1133CF0991F0A94E2F7AA2797FDA095BA2F49893C
S1133D005A896B897C8984239523A623B723002EA3
S1133D1004C0B695A795979587950A94D2F701970D
S1133D20A105B10529F5602FC5010E94AF1DFE0153
S1133D303B96A42DB52DC501462D31912D913213FD
S1133D404F5FEC15FD05C9F7411112C0F4017082F3
S1133D502F85E98DFA8D2083FE013196A32DB22D96
S1133D60099621912D93E817F907D9F780E007C048
S1133D700F5F1F4F0931110509F0B5CF8FEF6A9618
S1133D800FB6F894DEBF0FBECDBFDF91CF911F9168
S1133D900F91FF90EF90DF90CF90BF90AF909F90E6
S1133DA08F907F906F905F904F903F902F900895E9
S1133DB0FF920F931F93CF93DF93CDB7DEB728976E
S1133DC00FB6F894DEBF0FBECDBF8C01CE010196B5
S1133DD00E94311C89819A81AB81BC8180FF2CC0F7
S1133DE021E030E0E1E0F0E0F22EAF01022E02C06B
S1133DF0440F551F0A94E2F7662757FD6095762F06
S1133E00482359236A237B23022E04C076956795A1
S1133E10579547950A94D2F7452B462B472B41F0EB
S1133E202F5F3F4F29313105F9F6FF24FA940FC073
S1133E308FEF281751F001C0F12C8F2D0E94DD1C4B
S1133E406F2DC8010E94131D02C0FF24FA948F2D08
S1133E5028960FB6F894DEBF0FBECDBFDF91CF9189
S1133E601F910F91FF9008951F93CF93DF93CDB7C8
S1133E70DEB728970FB6F894DEBF0FBECDBF182F5C
S1133E808150883120F5112311F1CE0101960E9451
S1133E90311C21E030E0C90102C0880F991F1A9536
S1133EA0E2F780959095AA2797FDA095BA2F4981AE
S1133EB05A816B817C8184239523A623B72389832C
S1133EC09A83AB83BC83CE0101960E94861C2896FC
S1133ED00FB6F894DEBF0FBECDBFDF91CF911F9117
S1133EE00895FF920F931F93CF93DF93CDB7DEB75F
S1133EF028970FB6F894DEBF0FBECDBFF82E88E129
S1133F008F1538F1CE0101960E94311C41E050E03A
S1133F100F2C02C0440F551F0A94E2F7662757FD81
S1133F206095762F09811A812B813C81402351238E
S1133F306223732304C07695679557954795FA9441
S1133F40D2F781E0413051056105710519F480E033
S1133F5001C081E028960FB6F894DEBF0FBECDBF36
S1133F60DF91CF911F910F91FF9008951F93CF93ED
S1133F70DF93EC01162F862F0E94DD1C612FCE01EA
S1133F800E94131DDF91CF911F910895CF93DF936A
S1133F901F92CDB7DEB78AEA898341E0BE016F5F25
S1133FA07F4F80E090E00E94731B81E00E946C1CB4
S1133FB085E191E00E94861C80E00E94DD1C60E0A7
S1133FC08DE191E00E94131D0F90DF91CF91089530
S1133FD0CF93DF931F92CDB7DEB78AEA898341E09E
S1133FE0BE016F5F7F4F84E090E00E94731B0F90CF
S1133FF0DF91CF910895CF93DF931F92CDB7DEB7B2
S11340008FEF898341E0BE016F5F7F4F84E090E0D2
S11340100E94731B0F90DF91CF910895FF920F932D
S11340201F93CF93DF9300D000D0CDB7DEB78C01C0
S1134030FF24F394FB821C82FC01808189838181AB
S11340408A83CE0101960E94DE21FB821C82F80144
S11340508381898384818A83CE0101960E94DE2133
S1134060FB821C82F8018681898387818A83CE0141
S113407001960E94DE21F801818592850E947425B3
S11340800F900F900F900F90DF91CF911F910F9190
S1134090FF9008951F93CF93DF9300D000D000D0FA
S11340A0CDB7DEB7FC01162F9081998391819A8355
S11340B093819C8394819D83413089F018F0423030
S11340C079F51EC01B821E82CE0101960E94E52254
S11340D0CE0104960E94E5220E94C12521C081E000
S11340E08B831E82CE0101960E94E522CE010496A6
S11340F00E94E5220E94C525812F0E94632510C0DD
S11341001B8281E08E83CE0101960E94E522CE01BE
S113411004960E94E5220E94C525812F0E946325F2
S113412026960FB6F894DEBF0FBECDBFDF91CF91B8
S11341301F9108950F931F93CF93DF93CDB7DEB7ED
S113414027970FB6F894DEBF0FBECDBF8C010E9437
S1134150602460E080ED0E946D2480E00E94892448
S11341600E94962461E080ED0E946D2467E0CE01F8
S113417001960E94A3240E9493248981F8018083DC
S11341808A8181838B8182838C8183838D818483E3
S11341908E8185838F81868380E027960FB6F8947D
S11341A0DEBF0FBECDBFDF91CF911F910F91089558
S11341B0CF93DF93CDB7DEB727970FB6F894DEBF62
S11341C00FBECDBFFC018081898381818A83828176
S11341D08B8383818C8384818D8385818E83868187
S11341E08F830E94602460E080ED0E946D2480E053
S11341F00E94892467E0CE0101960E94E0240E9477
S1134200932480E027960FB6F894DEBF0FBECDBF8F
S1134210DF91CF910895CF93DF93C82FD62F0E94BB
S1134220602460E080ED0E946D248D2F0E9489241B
S11342308C2F0E9489240E94932480E0DF91CF91E7
S113424008951F93CF93DF93EC01162F0E946024EF
S113425060E080ED0E946D24812F0E9489240E94D9
S1134260962461E080ED0E946D2461E0CE010E94FD
S1134270A3240E94932480E0DF91CF911F9108959D
S11342801F93CF93DF931F92CDB7DEB7182F62E051
S1134290CE0101960E942121113009F048C0898184
S11342A086FD84C0982F282F2F7096959695969505
S11342B09670892F880F880F890F820F8C3029F40C
S11342C082E08061806280646CC08D30A8F08C5084
S11342D09DEC899F912D1124969596959695292F5D
S11342E0220F322F330F330F230F821B8F7090FB5B
S11342F084F98062806455C0811105C082E08061C8
S11343008F7D80644EC09DEC899F912D11249695DC
S113431096959695292F220F322F330F330F230FA3
S1134320821B8F7090FB84F98F7D80643AC08981F1
S113433086FF3EC085FD10C08F71823119F480E084
S11343408F7B2FC0998194FB882780F98295807F89
S11343509F70892B8F7B25C08F71823111F48F7BE5
S113436020C09981892F8F70845F92959170990FE5
S1134370292F220F220F920F890F9DEC899F912DD7
S11343801124969596959695292F220F322F330F47
S1134390330F230F821B93709295907F8F70892B1C
S11343A08F7B62E00E940B2180E003C081E001C0AA
S11343B081E00F90DF91CF911F910895CF92DF920A
S11343C0EF92FF920F931F93CF93DF93FC018081B1
S11343D0813009F443C038F0823009F47AC0833064
S11343E009F0EAC0B0C05AB3418181E090E09C0179
S11343F0042E02C0220F331F0A94E2F720952523CE
S1134400328130FBCC24C0F8D12C02C0CC0CDD1C92
S11344104A95E2F7C22ACABA2BB33181032E02C0ED
S1134420880F991F0A94E2F780958223928191FB69
S1134430EE24E0F8F12C032E02C0EE0CFF1C0A94CB
S1134440E2F7E82A438150E0CA0102C0880F991FAD
S11344503A95E2F79C012E292BBBAEC057B341819C
S113446081E090E09C01042E02C0220F331F0A94C5
S1134470E2F7209525233281032F017010E002C05A
S1134480000F111F4A95E2F7022B07BB28B33181B5
S1134490032E02C0880F991F0A94E2F780958223A5
S11344A0928196959170C92F90E0D92F032E02C066
S11344B0CC0FDD1F0A94E2F7C82B438150E0CA01F8
S11344C002C0880F991F3A95E2F79C012C2B28BB58
S11344D073C054B3418181E090E09C01042E02C07A
S11344E0220F331F0A94E2F7209525233281A32F4C
S11344F0A170B0E002C0AA0FBB1F4A95E2F7A22B3D
S1134500A4BB25B33181032E02C0880F991F0A94DE
S1134510E2F780958223928191FB662760F970E02F
S1134520032E02C0660F771F0A94E2F7682B4381BB
S113453050E0CA0102C0880F991F3A95E2F79C0126
S1134540262B25BB39C0B1B3A18181E090E0BC0129
S11345500A2E02C0660F771F0A94E2F760956B2358
S11345607281472F417050E002C0440F551FAA9535
S1134570E2F7462B41BB42B35181052E02C0880F9E
S1134580991F0A94E2F780958423928191FB222754
S113459020F930E0052E02C0220F331F0A94E2F7FF
S11345A0282B638170E0CB0102C0880F991F5A95B4
S11345B0E2F7AC01422B42BBDF91CF911F910F91E7
S11345C0FF90EF90DF90CF900895FC0180818130BF
S11345D009F130F08230C1F1833009F068C04EC077
S11345E06BB3918141E050E09A01092E02C0220F81
S11345F0331F0A94E2F72095422F4623228130E0AC
S1134600B90102C0660F771F9A95E2F7CB01842B9C
S11346108BBB089568B3918141E050E09A01092E63
S113462002C0220F331F0A94E2F72095422F46233B
S1134630228130E0B90102C0660F771F9A95E2F734
S1134640CB01842B88BB089565B3918141E050E090
S11346509A01092E02C0220F331F0A94E2F7209513
S1134660422F4623228130E0B90102C0660F771F32
S11346709A95E2F7CB01842B85BB089562B39181AF
S113468041E050E09A01092E02C0220F331F0A9420
S1134690E2F72095422F4623228130E0B90102C07F
S11346A0660F771F9A95E2F7CB01842B82BB08959E
S11346B0FC0120812130E1F030F0223071F123300F
S11346C009F054C03FC029B3FC01618141E050E0CE
S11346D0CA01062E02C0880F991F0A94E2F730E03F
S11346E08223932302C0959587956A95E2F70895EE
S11346F026B3FC01618141E050E0CA01062E02C0EC
S1134700880F991F0A94E2F730E08223932302C0B2
S1134710959587956A95E2F7089523B3FC01618125
S113472041E050E0CA01062E02C0880F991F0A9486
S1134730E2F730E08223932302C0959587956A952A
S1134740E2F7089520B3FC01418181E090E0042E5A
S113475002C0880F991F0A94E2F730E08223932362
S113476002C0959587954A95E2F7089580E00895EB
S113477083B984E886BF06B607FEFDCF08958F92FD
S11347809F92AF92BF92CF92DF92EF92FF921F93CC
S1134790CF93DF93EC018091E10181115BC06881CB
S11347A079818A819B810E9472336B017C016C81C7
S11347B07D818E819F810E9472339B01AC01C70170
S11347C0B6010E94DE320E944633605171094B01EA
S11347D0A12CB12C10E0612F70E080E090E00E94E9
S11347E072339B01AC0160E070E080E890E40E94C9
S11347F00034262F372F482F592F0E947A320E94D7
S113480046339B01AC01C501B4010E94C835822F17
S1134810215031092F3F310528F01F5F1430D9F69C
S113482081E019C080B98B859C85892B49F086B7B6
S1134830816086BF8B859C859093E3018093E20120
S11348408A85811182B984E086BF81E08093E10189
S113485080E001C087E0DF91CF911F91FF90EF903E
S1134860DF90CF90BF90AF909F908F9008951F924C
S11348700F920FB60F9211242F933F934F935F9390
S11348806F937F938F939F93AF93BF93EF93FF9314
S1134890E091E201F091E301309709F00995FF916D
S11348A0EF91BF91AF919F918F917F916F915F91A4
S11348B04F913F912F910F900FBE0F901F9018951D
S11348C084EA86BF06B607FEFDCF81B1887F8830B3
S11348D011F083E0089582E00895662319F06130B1
S11348E091F408C00E94B82381B1887F883169F0AF
S11348F084E008958F5F0E94B82381B1887F80345B
S113490031F084E0089584E0089582E0089582E01F
S113491008950E94B82381B1887F883211F085E020
S1134920089582E0089584E986BF089584EA86BFE5
S113493006B607FEFDCF81B1887F803111F083E098
S1134940089582E008956623B9F1623000F1FC0114
S1134950362F42E074ECA6E022E076BF06B607FEEE
S1134960FDCF51B1587F503521F453B15083522FAC
S113497001C05A2F452B31503196313071F76250B6
S1134980262F30E02F5F3F4F820F931F01C042E07C
S113499024E826BF06B607FEFDCF21B1287F2835BF
S11349A029F423B1FC01208382E001C086E0482B76
S11349B0423021F086E0089586E0089582E008956B
S11349C0FF920F931F93CF93DF93662399F0C82F21
S11349D0D92F8E010F5F1F4F6150060F111D689470
S11349E0FF24F1F889910E948924F82AC017D1077D
S11349F0C9F704C00F2EF5E0FF2EF02D8F2DDF91A7
S1134A00CF911F910F91FF900895833051F120F4BD
S1134A10813099F0E0F407C08530B9F160F1863057
S1134A2009F047C03CC085B58B7F85BD85B58D7FBA
S1134A3085BD85B5816085BD089585B58B7F85BDB0
S1134A4085B5826085BD85B58E7F85BD089585B5A4
S1134A508B7F85BD85B5826085BD85B5816085BD4B
S1134A60089585B5846085BD85B58D7F85BD85B583
S1134A708E7F85BD089585B5846085BD85B58D7FA0
S1134A8085BD85B5816085BD089585B5846085BD86
S1134A9085B5826085BD85B58E7F85BD089585B554
S1134AA0846085BD85B5826085BD85B5816085BD21
S1134AB0089585B58B7F85BD85B58D7F85BD85B50D
S1134AC08E7F85BD08952FEF829FC00111249C0124
S1134AD03695279536952795ABE7B4E10E94EA35DC
S1134AE09695879583BD0895CF93DF93EC0185B5A3
S1134AF0887F85BD8A810E94632589818093E40132
S1134B000E9405258881813099F028F08230E9F0EF
S1134B108330A1F527C085B5886085BD85B58064DF
S1134B2085BD85B5806285BD85B58F7E85BD26C072
S1134B3085B5886085BD85B5806485BD85B5806291
S1134B4085BD85B5806185BD19C085B5877F85BD67
S1134B5085B5806485BD85B5806285BD85B58F7E4C
S1134B6085BD0CC085B5877F85BD85B5806485BD51
S1134B7085B5806285BD85B5806185BDDF91CF91A6
S1134B80089585B5887F85BD08958091E4010E94CC
S1134B9005250895FC018081882319F0813069F48A
S1134BA007C06C98BC98BD98BF98BE9AC69805C0BB
S1134BB06C9ABC9ABD9ABF9ABE988181882319F0D9
S1134BC0813021F402C06B9801C06B9A82818823E2
S1134BD019F0813021F402C06A9801C06A9A838175
S1134BE0882319F0813021F402C06D9801C06D9AB8
S1134BF084818330C9F020F4813071F088F408C0D6
S1134C008530D1F0A8F08630D9F0873001F51CC08A
S1134C107098699868981BC070986998689A17C0CA
S1134C207098699A689813C07098699A689A0FC0C6
S1134C30709A699868980BC0709A6998689A07C0C6
S1134C40709A699A689803C0709A699A689A85817B
S1134C50882319F0813061F402C06F9809C06F9AFB
S1134C6086819781009721F09093E6018093E50176
S1134C706E9A08951F920F920FB60F9211242F93DC
S1134C803F934F935F936F937F938F939F93AF93D0
S1134C90BF93EF93FF93E091E501F091E601309724
S1134CA009F00995FF91EF91BF91AF919F918F9179
S1134CB07F916F915F914F913F912F910F900FBE14
S1134CC00F901F901895FC018085813039F018F001
S1134CD0823049F406C0549A539805C05498539AA4
S1134CE002C0549A539A8285823089F028F488232A
S1134CF041F08130A9F408C0833061F0843081F43C
S1134D000CC0529880E00DC0529882E00AC05298BC
S1134D1084E007C0529886E004C0529A86E001C03D
S1134D2080E09385992319F0913021F402C0877FA4
S1134D3001C088609485923031F0933039F091113C
S1134D4006C08F7C04C08F7E806201C0806390B5F2
S1134D50906890BD806880BD9AB18585892B8AB999
S1134D6086859785009721F09093E8018093E70169
S1134D7080899189009721F09093EA018093E90159
S1134D8082899389009721F09093EC018093EB0141
S1134D908185882321F0813009F048C026C05998C4
S1134DA080819181A281B381880F991FAA1FBB1FA3
S1134DB0880F991FAA1FBB1F9C01AD01220F331F2F
S1134DC0441F551F220F331F441F551F64817581D3
S1134DD0868197810E94C83521503109832F9927F4
S1134DE08F77992780BD29B90895599A8081918137
S1134DF0A281B381880F991FAA1FBB1F880F991F17
S1134E00AA1FBB1F9C01AD01220F331F441F551F56
S1134E1064817581868197810E94C835215031094A
S1134E20832F99278F77992780BD29B908951F92D9
S1134E300F920FB60F9211242F933F934F935F93CA
S1134E406F937F938F939F93AF93BF93EF93FF934E
S1134E50E091E701F091E801309709F00995FF919D
S1134E60EF91BF91AF919F918F917F916F915F91DE
S1134E704F913F912F910F900FBE0F901F90189557
S1134E801F920F920FB60F9211242F933F934F93BB
S1134E905F936F937F938F939F93AF93BF93EF939E
S1134EA0FF93E091E901F091EA01309709F0099547
S1134EB0FF91EF91BF91AF919F918F917F916F91EE
S1134EC05F914F913F912F910F900FBE0F901F90C4
S1134ED018951F920F920FB60F9211242F933F93A0
S1134EE04F935F936F937F938F939F93AF93BF93EE
S1134EF0EF93FF93E091EB01F091EC01309709F00F
S1134F000995FF91EF91BF91AF919F918F917F91FF
S1134F106F915F914F913F912F910F900FBE0F9022
S1134F201F9018955D9BFECF8CB90895CF93DF93A6
S1134F30EC01FE012491222351F02196FC0184917D
S1134F400E949227CE01FE0124912111F6CFDF9118
S1134F50CF910895CF93DF93EC010E94272F809186
S1134F60ED019091EE01892B31F480EF91E0909363
S1134F70EE018093ED014091CB075091CC079E0147
S1134F80240F351F2B3D85E0380770F44217530773
S1134F9070F4C091ED01D091EE01C40FD51F309390
S1134FA0CC072093CB0705C0C0E0D0E002C0C0E02E
S1134FB0D0E00E94EA2F8C2F9D2FDF91CF9108958E
S1134FC00895FC010396928381832FEF3FEF34838E
S1134FD02383968385839087878310820895FC01B9
S1134FE0118610860895CF93DF939C01FB01DC01A9
S1134FF01196CD91DC911297D383C2838C819D81CC
S1135000958384838C819D81DC0113967C936E93BC
S113501012977D836C8331872087F90180818F5FAC
S11350208083DF91CF910895CF93DF93EB01488183
S113503059814F3F2FEF520721F4FC01A781B0851E
S11350400DC0DC01139601C0DF011296ED91FC91B5
S113505013972081318142175307B0F71296ED91CF
S1135060FC911397FB83EA83D583C483BD83AC830C
S11350701396DC93CE93129799878887FC0120813D
S11350802F5F2083DF91CF910895CF93DF93FC01AD
S1135090A085B185C281D381848195819D838C83D0
S11350A0C481D581828193819B838A831196CD911A
S11350B0DC911297CE17DF0731F48C819D81129613
S11350C09C938E931197118610868C9181508C93AA
S11350D08C91DF91CF91089531E1FC0130833197B8
S11350E022E22083FC013297A3E3A083FC013397DF
S11350F06083FC0134977083FC0135971082FC01B6
S1135100369760E86083FC0137971082FC0138977A
S113511062E06083FC01399763E06083FC013A97A5
S113512064E06083FC013B9765E06083FC013C978D
S113513066E06083FC013D9767E06083FC013E9775
S113514068E06083FC013F9769E06083FC0170972D
S113515060E16083FC0171973083FC01729732E156
S11351603083FC01739733E13083FC01749734E19D
S11351703083FC01759735E13083FC01769736E185
S11351803083FC01779737E13083FC01789738E16D
S11351903083FC01799739E13083FC017A9730E25E
S11351A03083FC017B9731E23083FC017C972083C0
S11351B0FC017D9723E22083FC017E974083FC0160
S11351C07F975083FC01B09726E22083FC01B197BE
S11351D027E22083FC01B29728E22083FC01B397E5
S11351E029E22083FC01B49720E32083FC01B597D6
S11351F021E320839C0126523109822F932F0895A5
S11352001BBC89EF8ABD8BE08EBD89B7806189BFE5
S1135210A091CD07B091CE07CD91CDBFDD91DEBF7A
S1135220FF91EF91DF91CF91BF91AF919F918F91BA
S11352307F916F915F914F913F912F911F910F91AA
S1135240FF90EF90DF90CF90BF90AF909F908F90A2
S11352507F906F905F904F903F902F901F900F9092
S11352600FBE0F90089581E008950F920FB6F89441
S11352700F921F9211242F923F924F925F926F923E
S11352807F928F929F92AF92BF92CF92DF92EF92D2
S1135290FF920F931F932F933F934F935F936F93BB
S11352A07F938F939F93AF93BF93CF93DF93EF93AA
S11352B0FF93A091CD07B091CE070DB60D920EB617
S11352C00D920E947C30A091CD07B091CE07CD9174
S11352D0CDBFDD91DEBFFF91EF91DF91CF91BF9103
S11352E0AF919F918F917F916F915F914F913F917A
S11352F02F911F910F91FF90EF90DF90CF90BF906F
S1135300AF909F908F907F906F905F904F903F9061
S11353102F901F900F900FBE0F9008950F920FB60D
S1135320F8940F921F9211242F923F924F925F9202
S11353306F927F928F929F92AF92BF92CF92DF92A1
S1135340EF92FF920F931F932F933F934F935F938B
S11353506F937F938F939F93AF93BF93CF93DF9379
S1135360EF93FF93A091CD07B091CE070DB60D92A8
S11353700EB60D920E942D2F81110E947C30A091B7
S1135380CD07B091CE07CD91CDBFDD91DEBFFF91AA
S1135390EF91DF91CF91BF91AF919F918F917F91C9
S11353A06F915F914F913F912F911F910F91FF90BA
S11353B0EF90DF90CF90BF90AF909F908F907F90B1
S11353C06F905F904F903F902F901F900F900FBE63
S11353D00F9008950E948E2918950FB6F8940F9295
S11353E0FC01928D0F900FBE81E0911180E0089531
S11353F0FC01862F972F448D4423A1F02681378109
S1135400240F311D37832683A281B3812A173B07DA
S113541020F020813181378326836681778150E0B3
S11354200E94F6350895FF920F931F93CF93DF9355
S1135430EC010FB6F8940F92FE8C1F149CF489892A
S1135440811105C00FC08989811104C00BC08E0170
S11354500F5E1F4FC8010E94E63081110E94663121
S1135460FA9489F78FEF8E8F0F900FBE0FB6F894D2
S11354700F92FD8C1F149CF48885811105C00FC008
S11354808885811104C00BC08E01085F1F4FC801BD
S11354900E94E63081110E946631FA9489F78FEFF9
S11354A08D8F0F900FBEDF91CF911F910F91FF90C1
S11354B008950F931F93CF93DF93EC01042F1A8D5C
S11354C04C8D41110CC088819981892B09F042C00F
S11354D08A819B810E94D7311B821A8242C00111AA
S11354E017C050E08C819D810E94F6352C8D8C81F3
S11354F09D81820F911D9D838C832A813B8182171C
S1135500930750F1888199819D838C8380E029C021
S113551050E08E819F810E94F6352C8D30E03195CC
S1135520219531098E819F81820F931F9F838E83E2
S1135530688179818617970730F48A819B81280FC7
S1135540391F3F832E83023049F4112349F011504F
S113555080E007C080E005C080E003C080E001C0B7
S113556080E01F5F1A8FDF91CF911F910F910895F3
S1135570CF93DF93EC010FB6F8940F928881998151
S11355804B8D50E02C8D30E0429FF001439FF00D95
S1135590529FF00D1124E80FF91FFB83EA831A8E42
S11355A09D838C8341505109249FF001259FF00D68
S11355B0349FF00D11248E0F9F1F9F838E838FEFD6
S11355C08D8F8E8F61110CC08885882389F0CE0160
S11355D008960E94E630882359F00E94352908C0B5
S11355E0CE0108960E94E127CE0141960E94E12750
S11355F00F900FBE81E0DF91CF9108950F931F9319
S1135600CF93DF93082F162F6623D9F0869FC0010E
S113561011244F960E94AA27EC01009721F40EC092
S1135620D983C88305C09C01215E3F4F39832883F9
S11356300B8F1C8F61E0CE010E94B82A8C2F9D2F06
S113564008C08FE190E00E94AA27EC01009741F77F
S1135650F5CFDF91CF911F910F9108959F92AF9253
S1135660BF92CF92DF92EF92FF920F931F93CF934B
S1135670DF9300D000D01F92CDB7DEB78C016B0151
S11356805D834C83A22EB12C992493947C0188E0F1
S1135690E80EF11C0FB6F8940F92F801928D838DE9
S11356A0981718F0F2E0AF1219C04A2DB601C801DC
S11356B00E94592AF8019189992349F0C801419619
S11356C00E94E630882331F00E94352903C08111FD
S11356D00E9435290F900FBE81E051C0EC81FD81FD
S11356E0EF2B21F40F900FBE80E049C0B11005C02C
S11356F0CE0101960E942F31B92C0F900FBE0E944B
S1135700272F0FB6F8940F92F801858D8F3F09F477
S1135710158EF801868D8F3F09F4168E0F900FBEFB
S1135720BE016C5F7F4FCE0101960E943A31811118
S113573020C00FB6F8940F92F801928D0F900FBE0F
S1135740F801838D98130FC06C817D81C7010E947D
S1135750D430C8010E94132A0E94EA2F81119ACFE3
S11357600E94352997CFC8010E94132A0E94EA2F6C
S113577091CFC8010E94132A0E94EA2F80E00F9063
S11357800F900F900F900F90DF91CF911F910F9179
S1135790FF90EF90DF90CF90BF90AF909F900895CF
S11357A0CF93DF93482F60E081E00E94FE2AEC0152
S11357B0009761F01B821A82198218821E8220E0EF
S11357C040E050E060E070E00E942E2B8C2F9D2F73
S11357D0DF91CF910895FF920F931F93CF93DF939F
S11357E0EC018A019A8D8B8D981710F02230E1F428
S11357F0FE8C422FCE010E94592A8FEFF81210C05E
S11358008989882399F0CE0141960E94E630882345
S113581079F00115110571F081E0F80180830BC066
S1135820F394FE8E81E007C080E005C081E003C0F0
S113583081E001C081E0DF91CF911F910F91FF9032
S113584008959F92AF92BF92CF92DF92EF92FF9210
S11358500F931F93CF93DF9300D000D01F92CDB747
S1135860DEB78C016B015D834C83A12C9924939446
S11358707C0181E1E80EF11C0FB6F8940F92F80157
S1135880B28CBB20A9F0B601C8010E94F829BA94D1
S1135890F801B28E8085882339F0C80108960E94E9
S11358A0E63081110E9435290F900FBE81E051C06E
S11358B02C813D81232B21F40F900FBE80E049C041
S11358C0A11005C0CE0101960E942F31A92C0F9082
S11358D00FBE0E94272F0FB6F8940F92F801858D02
S11358E08F3F09F4158EF801868D8F3F09F4168ECB
S11358F00F900FBEBE016C5F7F4FCE0101960E94D8
S11359003A3181111AC0C8010E94ED29882379F027
S11359106C817D81C7010E94D430C8010E94132A82
S11359200E94EA2F8111A8CF0E943529A5CFC80172
S11359300E94132A0E94EA2F9FCFC8010E94132AB3
S11359400E94EA2FC8010E94ED29882309F494CF0C
S113595080E00F900F900F900F900F90DF91CF91F8
S11359601F910F91FF90EF90DF90CF90BF90AF9079
S11359709F900895BF92CF92DF92EF92FF920F9380
S11359801F93CF93DF9300D000D01F92CDB7DEB723
S11359908C017D836C83B12CD12CCC24C3947C01E9
S11359A081E1E80EF11C0FB6F8940F92D8015A96D3
S11359B09C915A979923E9F091505A969C935A973F
S11359C08D919C91892B29F40E946532F80193836F
S11359D08283D80118968C91882339F0C8010896DF
S11359E00E94E63081110E9435290F900FBE81E09C
S11359F07FC02C813D81232B21F40F900FBE80E0CA
S1135A0077C0D11005C0CE0101960E942F31DC2C45
S1135A100F900FBE0E94272F0FB6F8940F92F80133
S1135A20958D9F3F09F4158ED8015E969C915E97E3
S1135A309F3F11F45E961C920F900FBEBE016C5FE7
S1135A407F4FCE0101960E943A31811129C0C801CD
S1135A500E94ED298823F1F0F80120813181232B64
S1135A6051F40FB6F8940F92828193810E946A31A7
S1135A70B82E0F900FBE6C817D81C7010E94D43077
S1135A80C8010E94132A0E94EA2F81118CCF0E9420
S1135A90352989CFC8010E94132A0E94EA2F83CF97
S1135AA0C8010E94132A0E94EA2FC8010E94ED290E
S1135AB0882309F478CFBB20D1F00FB6F8940F9265
S1135AC0F8018189882339F00688F789E02D8081DF
S1135AD065E0681B01C060E0D80112968D919C912D
S1135AE013970E9416320F900FBE80E001C080E031
S1135AF00F900F900F900F900F90DF91CF911F9107
S1135B000F91FF90EF90DF90CF90BF900895E091B8
S1135B10DC07F091DD078081811107C08FEF9FEFD3
S1135B209093D1078093D0070895E091DC07F0911A
S1135B30DD070580F681E02D0680F781E02D828166
S1135B4093819093D1078093D0070895CFEDD7E048
S1135B5088818230E8F30E943529FACF0F931F938E
S1135B60CF93DF93EC010091D7071091D807809170
S1135B70CD079091CE0702960E944528C00FD11FF1
S1135B80E091CD07F091CE07D383C283C017D1072C
S1135B9068F46091CD077091CE078091DA079091F7
S1135BA0DB076E5F7F4F0E94142817C06091CD07FA
S1135BB07091CE078091DC079091DD076E5F7F4F77
S1135BC00E9414288091D0079091D107C817D90753
S1135BD020F4D093D107C093D007DF91CF911F91C8
S1135BE00F9108954F925F926F927F928F929F923E
S1135BF0AF92BF92CF92DF92EF92FF920F93CF9327
S1135C00DF934C016B015A012901CA010E94AA27A2
S1135C103C01009709F4E0C08AE290E00E94AA27C0
S1135C20EC01009771F0788E6F8A81E0A81AB108B0
S1135C306A0C7B1CD6018C91898F8C91811105C0D3
S1135C4016C0C3010E94E027C7C0AE01465E5F4F85
S1135C50F601319621E0CF013191DA013D93AD0196
S1135C60DC018C91882319F02F5F2A30A1F71AA246
S1135C70053008F004E00E8B0BA31CA26E01B2E009
S1135C80CB0ED11CC6010E94EF27CE010C960E94B8
S1135C90EF27D987C88785E090E0801B91099D870D
S1135CA08C87DB8BCA8B1DA21EA21FA218A619A665
S1135CB0A201B401C3010E946C2899838883E11472
S1135CC0F10419F0F701D183C0830FB6F8940F9251
S1135CD08091D9078F5F8093D9078091CD079091E8
S1135CE0CE07892BC1F5D093CE07C093CD07809101
